:020000041000EA
:10000000002008205D0100101B0100101D010010E0
:100010001101001011010010110100101101001058
:100020001901001019010010190100101F01001022
:10003000110100101901001021010010230100100E
:100040001101001011010010110100101101001028
:100050001101001011010010110100101101001018
:100060001101001011010010110100101101001008
:1000700011010010110100101101001011010010F8
:1000800011010010110100101101001011010010E8
:1000900011010010110100101101001011010010D8
:1000A00011010010110100101101001011010010C8
:1000B00011010010110100101101001011010010B8
:1000C00011010010110100101101001011010010A8
:1000D0001101001011010010110100101101001098
:1000E0001101001011010010110100101101001088
:1000F0001101001011010010110100101101001078
:100100001101001011010010110100101101001067
:10011000EFF30580103800BE00BE00BE00BE00BE7A
:1001200000BE00BEF2EB8871F80100101C02001046
:10013000A001001090A31AE7D3DEFFFF42012110B7
:10014000FF010000949A0000793512AB4FF00000D7
:100150002149086006C881F3088810474FF05040D5
:10016000006810B14FF00000F2E70DA40ECC00299A
:1001700002D000F012F8F9E71849194A002000E00F
:1001800001C19142FCD1174988471749884717494F
:10019000884700BEFDE701C901C29A42FBD3704700
:1001A0001C020010100100204C91002058920010F9
:1001B00050910020C49A0020CC9B00100000082021
:1001C00000000820CC9B0010001008200010082020
:1001D000000000007047000008ED00E0C49A002015
:1001E000CCAD0620D956002051040020D156002065
:0801F0007089001001000000FD
:1001F8004897002054970020609700206C970020B3
:100208007897002084970020909700209C970020E2
:04021800E09800204A
:10021C00F8B500BF0348044B834202D0034B03B133
:10022C0018477047C49A0020C49A002000000000B0
:10023C00064B0749C91A891048BF0131491003D030
:10024C00044B0BB101481847704700BFC49A0020FB
:10025C00C49A00200000000010B5064C237843B966
:10026C00FFF7D8FF044B13B10448AFF30080012310
:10027C00237010BD689C0020000000004C910020F1
:10028C0008B5044B1BB104490448AFF30080BDE82A
:10029C000840CDE7000000006C9C00204C91002031
:1002AC00002973D02DE9F04F4FF001084FF00209EF
:1002BC00924F01443A78924D97B0441E4E1E531CF7
:1002CC00DBB23B7014F8011F012BA95412D106E0CC
:1002DC00B44256D087F8008014F8013F2B702B786D
:1002EC00552BF5D1B44228D0022387F8009014F88E
:1002FC00012F6A70022B10D01BD9EA1812F8021CBD
:10030C00AA291DD0A64218D05A1CD2B23A7014F8A1
:10031C00011FE9541346022BEED16B78AA2BD7D1CF
:10032C00A6420AD003233B7014F8012F022BAA70AB
:10033C00E3D8A6424FF00002C1D117B0BDE8F08F50
:10034C0012F8012C552ADDD100226D48A95CF02948
:10035C000DD00132934200F8011BF7DCAA78062A73
:10036C0033D8DFE802F0303614146C182200A918C8
:10037C004978023281F0F0019A4200F8011BE5DB6A
:10038C00ECE700233B7017B0BDE8F08F70475D4879
:10039C0005F0D4FB9CE7012100225B4B5B481970F4
:1003AC005B4B1A6005F0CAFB92E70023564A59488A
:1003BC001370574A136005F0C1FB19234FF001026B
:1003CC0042EC403084E7052B48D0534805F0B6FB8F
:1003DC007EE7524BDFF874C195F803E0C3F800C018
:1003EC00BEF1010FD5F82300D5F82B2095F821107C
:1003FC0095F804A06B7995F831B060D0BEF1020F7E
:10040C006CD0003B18BF0123BEF1030F4CD0CDE9DB
:10041C00043BCDE9021A0CF10603019395F8303038
:10042C00009395F82F30D5F8271001F073FB88B1A5
:10043C003B4805F083FB01223A4B1A7048E73A48D7
:10044C0005F07CFB4FF47A7002F0F6FE00210846B2
:10045C0003F05EFB354805F071FB39E7344805F0D5
:10046C006DFB344A344906A805F06EF906A805F070
:10047C00E5FB324A324906A805F066F906A805F0F4
:10048C00DDFB4FF4C0222F4906A805F05DF906A844
:10049C0005F0D4FB18222C490DEB020005F054F9A1
:1004AC0006A805F0CBFB13E7CDE9013BCDF800A086
:1004BC000B4611460CF1060201F0E6F9B7E7CDE95F
:1004CC0001A3CDF810B00091B5F807100CF106039C
:1004DC000391D5F8271000F0E5FFA8E7CDE901A3BB
:1004EC00CDF810B00091B5F807100CF1060303918C
:1004FC00D5F8271000F0EEFD99E700BFBBAD062044
:10050C00C4AC06200C940020BAAD06203494002014
:10051C0028A400203C9400208493002078AD062071
:10052C00EC930020BEAD06201C940020FC93002010
:10053C009493002000C2EB0BB49300200084D717D7
:10054C00C0930020D0930020DC930020C7AC062081
:10055C002DE9F04F89B003F055FA0F2003F030FA73
:10056C0004AF012002F068FE3946CB4806AB05AA61
:10057C0003F012F918B9C849C84801F0E1FEDDE9E9
:10058C000512049803F046F84FF0E023052206A864
:10059C001A6105F025FE9DF818109DF819309DF88C
:1005AC001A200B449DF81B1013449DF81C200B447F
:1005BC009DF81D1013449DF81E200B4413449DF808
:1005CC001F201344981100F4F870C3F30903184466
:1005DC0002F032FE05F028FA4FF47A7002F02CFE8D
:1005EC0080220021AE4808F011FD192001F064FEB4
:1005FC0019224FF0010343EC442043EC40208DF8CA
:10060C000730A84B0DF10F081B78002B00F0AF80C2
:10061C0001F086FC8246002840F057810DF10E0255
:10062C0005A9384601F084FC8146404601F00CFED9
:10063C000546642002F000FE0426002007F0C6FBED
:10064C00B042A8BF30460446002800F0E1800246C4
:10065C0007EB0A01002007F09DFB044606F00EFB99
:10066C00361B002007F058FB002EA244E5DC64206A
:10067C0002F0E2FDDDE9046A9DF80E30012B00F07A
:10068C004981022B04D1B6004FEA8A0ACDE9046AEB
:10069C0006EB0A03B3F5C02F40F2DE80CAF5C02684
:1006AC00002EC8BF4FF0000B1ADD002007F08EFBA8
:1006BC00B042A8BF30460446002800F0B5800BEBD2
:1006CC000A0102464944002007F064FB044606F088
:1006DC00D5FA361B002007F01FFB002EA344E4DCE8
:1006EC00DDE904361E44A6F5C026002EC8BF4FF027
:1006FC00000A19DD002007F069FBB042A8BF3046A4
:10070C000446002800F09C80024609EB0A010020F8
:10071C0007F040FB044606F0B1FA361B002007F048
:10072C00FBFA002EA244E5DC4FF000090126002064
:10073C0007F04CFBB042A8BF3046044600283BD023
:10074C00024608EB0901002007F024FB044606F0E2
:10075C0095FA361B002007F0DFFA002EA144E6DCE8
:10076C009DF80F60012E35D800234E4A13704E4B66
:10077C001B7893B14D490B685A1C0A604C498B424B
:10078C0000F0CE80444B9A4207D119239DF80720E4
:10079C0042EC40300023454A1360002005F046F936
:1007AC00831C06D08DF814000022012105A8FFF748
:1007BC0077FD3C4B1B7828E706F060FA204607F0E3
:1007CC00ABFA204607F04CFA0028B0D19DF80F6028
:1007DC00012EC9D94FF00009B600002007F0F6FA37
:1007EC00B042A8BF30460446002800F0878002467D
:1007FC0005EB0901002007F0CDFA044606F03EFA9D
:10080C00361B002007F088FA002EA144E5DCABE78C
:10081C0006F034FA204607F07FFA204607F020FA5B
:10082C0000287FF40AAF22E706F028FA204607F0EA
:10083C0073FA204607F014FA00287FF436AF4FE71E
:10084C0006F01CFA204607F067FA204607F008FA73
:10085C0000287FF44FAF67E7002E7FF765AF4FF0AE
:10086C00000B002007F0B2FAB042A8BF3046044695
:10087C0000B30BEB0A0102464944002007F08AFA48
:10088C00044606F0FBF9361B002007F045FA002E53
:10089C00A344E6DC48E700BF801A06004894002019
:1008AC00C4AC0620BEAD0620BAAD062028A400209C
:1008BC00400D030006F0E2F9204607F02DFA204621
:1008CC0007F0CEF90028CCD12EE719244FF0000305
:1008DC0043EC40404FF47A7002F0AEFC002005F07F
:1008EC00A5F8023022D000F0B9FB4FF00002164BF5
:1008FC001A709DF8073043EC404038E706F0BEF91B
:10090C00204607F009FA204607F0AAF900287FF4E0
:10091C0064AF29E776004FEA4A0ACDE9046AB7E6E4
:10092C0019234FF0000242EC403036E79DF80730B7
:10093C0043EC404000F076FA4FF47A7002F07CFC05
:10094C00014B1B7861E600BFBEAD062070B50124DB
:10095C004FF0A04C194D1A4A2B681A4E99010A44B3
:10096C0004FA03F3CCF80C341460C6F804340026F3
:10097C0000210A2001F0FCFD13490A2001F05EFF62
:10098C00286807F04BFF1148114D124A06601249B6
:10099C0028681268114B09681A60036804FA01F29E
:1009AC0023EA0203036007F04FFF0D4B0D491A6851
:1009BC00286807F0EDFF0C4B1C7070BD98A4062046
:1009CC0010300050003000504D08002000800640D0
:1009DC0030A40620ACA8062088AD0620B8A80620B6
:1009EC002CA406203C970020BCAD06201C4AF8B570
:1009FC00012613464FF0A04C1A4D1B4C2868276853
:100A0C0081010A441660BA0106FA00F013441E6014
:100A1C006144CCF86404CB685B01FCD402F1A043C4
:100A2C000122BA40CCF86424D96811F08061FBD162
:100A3C0001230E4AC2F8040420688340C2F804342F
:100A4C000A2001F095FD0A20094901F0F7FE2868FB
:100A5C0007F0E4FE2068BDE8F84007F0DFBE00BFF9
:100A6C001030005098A406209CA4062000300050A2
:100A7C0051910020F8B50020394E01F041FC0120C5
:100A8C0001F03EFC337853B10024364D15F8010BC0
:100A9C0001F036FC01343378E4B2A342F6D8324B81
:100AAC000021187801F0F8FB304B05201B78022B45
:100ABC009CBF2F4A52F8237002F0E8FC2D4B1B68A8
:100ACC009B0103F1A0431A69500107D42A4B1B6800
:100ADC009B0103F1A0431A6951013ED59B685A1C36
:100AEC0001D0FF1A7B1E0125244C254A254F13608B
:100AFC00FFF77CFF236800211D630F2001F038FDF8
:100B0C000F20214901F09AFE204B206819680268D9
:100B1C0005FA01F322EA0303036007F095FE1C4B70
:100B2C001C491A68206807F033FF2068396806688A
:100B3C0005FA01F326EA03030360002207F05EFFC7
:100B4C003968206807F080FE134B14491A68206836
:100B5C0007F01EFF124B1D70F8BD4FF0FF33C2E7BC
:100B6C00C2AD0620489C0020C5AD0620C1AD0620B4
:100B7C004496002098A406209CA4062030A40620AD
:100B8C00B8A806208CAD06207509002088AD06207B
:100B9C002CA40620849600209CAD0620A49900204D
:100BAC00BCAD0620F8B50020424E01F0A9FB012097
:100BBC0001F0A6FB337853B100243F4D15F8010B1F
:100BCC0001F09EFB01343378E4B2A342F6D83B4BE0
:100BDC000021187801F060FB394B1B78022B02D8EE
:100BEC00384A52F82370052002F050FC364B1B6833
:100BFC009B0103F1A0431A69500107D4334B1B68C6
:100C0C009B0103F1A0431A6951014FD59B685A1CF3
:100C1C0001D0FF1A7B1E2E4A2E4C1360FFF7E6FE06
:100C2C000122236800211A630F2001F0A1FC0F2080
:100C3C00294901F003FE4FF4007502222068274970
:100C4C0000F545530263DD630978E9B901222449B3
:100C5C00036809688A4023EA0203036007F0F4FD85
:100C6C00204B214A1B781268206833B11F4907F0CA
:100C7C008FFE01221E4B1A70F8BD1E4907F088FE2C
:100C8C0001221B4B1A70F8BD00251B4B1B4910464B
:100C9C000D60196807F0A4FF4FF0E022184B0F20ED
:100CAC001968156107F09CFF2068CFE74FF0FF3300
:100CBC00B1E700BFC2AD0620489C0020C5AD0620A0
:100CCC00C1AD06204496002098A406209CA40620C2
:100CDC00B8A8062030A40620A50A0020C9AD06201D
:100CEC0088AD0620C4AD06202CA406201897002041
:100CFC00BCAD0620F496002048AD0620000008E0AC
:100D0C004CAD0620F8B50020354E01F0F9FA012063
:100D1C0001F0F6FA337853B10024324D15F8010B7B
:100D2C0001F0EEFA01343378E4B2A342F6D82E4B3C
:100D3C000021187801F0B0FA2C4B05201B78022BFF
:100D4C009CBF2B4A52F8237002F0A0FB294B1B6866
:100D5C009B0103F1A0431A69500107D4264B1B6871
:100D6C009B0103F1A0431A69510136D59B685A1CAB
:100D7C0001D0FF1A7B1E0124204A214D1360FFF77E
:100D8C0035FE28681F4B04631968026804FA01F3E6
:100D9C0022EA0302026007F057FD1B4B28681B4D2B
:100DAC001A681B491B4F07F0F3FD28683968066861
:100DBC0004FA01F326EA03060022066007F01EFE81
:100DCC003968286807F040FD134B14491A682868E5
:100DDC0007F0DEFD124B1C70F8BD4FF0FF33CAE775
:100DEC00C2AD0620489C0020C5AD0620C1AD062032
:100DFC004496002098A406209CA40620B8A806209F
:100E0C0030A4062088AD06202CA40620A0AD062018
:100E1C006C9600208CAD06209CAD06209C99002081
:100E2C00BCAD0620054B1B78022B00D07047044B41
:100E3C001B681B6BDB07F9D5FFF764BFC3AD06203E
:100E4C0030A406202DE9F047824601200D4607F01C
:100E5C00EBFC03464FF00109204E214F3268214C28
:100E6C0002F12F4202F56002110DDFF888803A681A
:100E7C00DFF884C004EA4334C8F80030043209FABD
:100E8C0003F344EA8A0402EBC102CCF804340A20CE
:100E9C00154924F4FC0444EA424401F0ABFB4946F6
:100EAC000A2001F065FB00210A2001F0C1FD4FF47E
:100EBC0088520E4B39681A60D8F800303268083105
:100ECC0002EB81029B010A4903F1A04344F0410467
:100EDC001A6059609D60DC60BDE8F08730A4062084
:100EEC0088AD0620FDFF7FFC4D08002000800640E9
:100EFC002CA4002098A406200020005001282DE9E5
:100F0C00F84F00F0878002287BD0002800F08B80FF
:100F1C004FF0000BDFF834A1012007F085FC0346ED
:100F2C00454E0120336007F07FFC05460120DFF8B9
:100F3C002081DFF82091D8F80030D9F8002003F197
:100F4C002F4303F560031B0D0432316802EBC3021F
:100F5C003A4BDFF804E13A4F03EA413C00FA01F462
:100F6C004CEA0B0C3D602CF4F03CCEF804444CEAFB
:100F7C004534D7F800C00A2003EA4C35012345EA72
:100F8C000B0503FA0CF3D6F800C025F4F03545EA4E
:100F9C004C35CEF804342B4924F4FC0425F4FC0520
:100FAC0044EA424445EA424501F024FB01210A206F
:100FBC0001F0DEFA00210A2001F03AFD3A683368AC
:100FCC00D9F80070D8F800001F49DAF800C0920177
:100FDC0007F108069B0102F1A04203F1A04300EBCC
:100FEC00860044F0410445F0410510605160C2F8A0
:100FFC0008C0156118605960C3F808C0DC60BDE812
:10100C00F88F4FF4C033DFF844A04FF0080BCAF848
:10101C00003081E74FF44033DFF830A04FF0040B81
:10102C00CAF8003078E74FF4C023DFF820A08346DD
:10103C00CAF8003070E700BF98A40620FDFF7FFCC3
:10104C009CA40620519100202CA4002098AD0620D1
:10105C0030A4062088AD062000200050184B1B78C9
:10106C00C3B9184A184B1068184A1968134610B5BA
:10107C0001248001890102440B4414601C60EFF3CD
:10108C00108472B6124B1B78032B06D8DFE803F0E2
:10109C00030D12087047FFF785FD84F3108810BD0F
:1010AC00FFF754FC84F3108810BDFFF7E3FC84F3C6
:1010BC00108810BDFFF726FE84F3108810BD00BF0A
:1010CC00BCAD062098A406209CA40620103000502D
:1010DC00C3AD06202DE9F04F2DED028B8BB09DF8A2
:1010EC0068609846022E98BF144B9DF8604098BFDC
:1010FC0053F826C08B186345039405468B4614465B
:10110C009DF858909DF85CA0BDF8647010D80C4BFD
:10111C0098420DD8B9F1180F0AD8BAF10F0F07D8A9
:10112C00039A531E042B03D802EB0A03102B09DD80
:10113C0000200BB0BDEC028BBDE8F08F4496002074
:10114C0000C2EB0B4FF4C0220021BB4807F05EFF3E
:10115C000022BA4BC3F800B0B94B1C60B94B1A60F3
:10116C00B94B83F80090B94B1E70B9F1000F00F029
:10117C0060814346B64AB748C14413F8011B415C31
:10118C004B4502F8011BF8D110F80A3005200493E6
:10119C0002F03AFA6D0007EE100A07EE905AB8EE1C
:1011AC00477AF8EEE77ADFF8F082AB4BAB48C8F839
:1011BC000030AB4B87EE278A186007F005FCA84B74
:1011CC0000201B68A74D03F12F4303F560031B0D93
:1011DC00991DC9B201F042F8D8F80030012003F192
:1011EC002F4303F560031B0D991DC9B201F036F8AE
:1011FC00AA4605F11809D8F800101AF8010F01F1E8
:10120C002F4101F56001090D0631C9B201F026F834
:10121C00D145F0D10121D8F8000007F023FB02469C
:10122C004FF0004E4FF0010CD8F8000002EB420AD0
:10123C0000F500530593DFF864B200EBCA0303F525
:10124C008653C3F810E0CBF80020C3F810E004324A
:10125C00059B0CFA02F21A60834907F01FFB4FF052
:10126C00000A824B1860CDF800A015F8012F01235D
:10127C00DBF80010D8F8000007F0F2FBA945F2D11A
:10128C00DFED7B7A78EE277A784BBCEEE77A1A683A
:10129C004FF480330993D31C911C1B0343EAC113F5
:1012AC0017EE101A88B2002800F0C18007EE100A61
:1012BC00B8EE477ADFED6F6A77EEC77A67EEA67AFB
:1012CC00FCEEE77ACDED057A9DF8141009024FF08B
:1012DC000109002523F0F85341EA004143F08073E3
:1012EC00D8F80000069107936349644BC0F830901E
:1012FC0008930D7006ABDBF8001007F0F7FB584BAA
:10130C004946186807F0AEFA554A039BD2F800E03C
:10131C0009FA03F24FF000434AF2A00100EB400C33
:10132C00DFF87CA10EEBCC0C0CF5865CCAF8000047
:10133C000430CCF8103009FA00F0CCF810300EF56F
:10134C000053013A18604E4BFFB2D2B202EA0500CC
:10135C00874264D00135202D23F8021FF6D1704648
:10136C00484907F09BFA0125474F2B4638603C480B
:10137C0000950022DAF80010006807F071FB0023DA
:10138C0037480093DAF80010DDE9033900684A4663
:10139C0007F066FB4FF4803306934B46DB0303F4F4
:1013AC00782343F0105309934FF4402308933B6880
:1013BC00304603F11F02DB0143EA023323F0C04342
:1013CC000793FFF79BFDD8F80020DBF8001010689E
:1013DC0005FA01F30343136001F11003013C9D4036
:1013EC0056682E40FCD1043142F821401C4C3A681E
:1013FC00DAF80010206806AB07F078FB0120022118
:10140C00224B22681E70DAF80030146800FA03F3DD
:10141C00234313601E4A1F4B1670197089E645F45E
:10142C0080500135202D23F8020F8FD197E701460C
:10143C004DE70848A8E600BF2CA40020B0A8062061
:10144C00ACA80620A8A80620C2AD0620C1AD062077
:10145C00489C002050960020000030500000205086
:10146C00A0AD06204F9600206C9600202CA40620E0
:10147C000000003B00008043C9AD06200000D901EC
:10148C00169E00209C9900209CAD0620BCAD062029
:10149C00BDAD0620C3AD062030A4062088AD0620C5
:1014AC008CAD06202DE9F04F2DED028B93B09DF8FD
:1014BC0088601D46022E98BF144BBDF8844098BF1F
:1014CC0053F826C08B186345039480468B4614460C
:1014DC009DF878709DF87CA09DF880900FD80C4BEF
:1014EC0098420CD8182F0AD8BAF10F0F07D809F167
:1014FC00FF330F2B03D809EB0A03102B0ADD002056
:10150C0013B0BDEC028BBDE8F08F00BF44960020F9
:10151C0000C2EB0B4FF4C0220021C14807F076FD4E
:10152C000022C04BC3F800B0BF4B1C60BF4B1A600D
:10153C00BF4B1F70BF4B1E70002F00F06F812B46EE
:10154C00BD4ABE482F4413F8011B415C9F4202F870
:10155C00011BF8D110F80A300520049302F054F85E
:10156C004FEA480807EE100A07EE908AB8EE477A61
:10157C00F8EEE77AB248B34F87EE278A386007F067
:10158C0023FA3B68002003F12F4303F560031B0D86
:10159C00991DC9B200F062FE3B68AB4D03F12F43BD
:1015AC0003F560031B0D991D0120C9B200F056FE16
:1015BC00AA4605F1180839681AF8010F01F12F41F4
:1015CC0001F56001090D0631C9B200F047FED045A6
:1015DC00F1D10121386807F045F902464FF0004E71
:1015EC004FF0010C386802EB420A00F500530593EA
:1015FC00DFF890B200EBCA0303F58653C3F810E092
:10160C00CBF80020C3F810E00432059B0CFA02F270
:10161C001A608E4907F042F94FF0000A8C4B1860A3
:10162C00CDF800A015F8012F0123DBF80010386865
:10163C0007F016FA4545F3D1DFED867A78EE277A76
:10164C004FF48033BCEEE77A0993814B1A68131D73
:10165C001B03033243EAC21317EE102A91B200297E
:10166C0000F0DA8007EE101AB8EE477ADFED7A6AEE
:10167C0077EEC77A67EEA67AFCEEE77ACDED057ABF
:10168C009DF8142012024FF0010A42EA01424FF475
:10169C0080714FF0000823F0F85343F080730692EA
:1016AC0007933A686D4BC2F830A0089302F50553C6
:1016BC0019630F206A4900F09DFF51460F2000F07E
:1016CC0057FF684BDBF8001083F80080604B3868DC
:1016DC001A6806AB07F00AFA5146386807F0C2F8E8
:1016EC0002464FF00045386802EB420E00F50053FD
:1016FC0005935D4B49F4C04C1A6000EBCE0303F527
:10170C0086531D6104321D61059D0AFA02F22A609E
:10171C00564A4CF0400C5649A2F80AC007F0BEF8E5
:10172C00544D51492860CDF800A0424653460968F3
:10173C00386807F095F94B464B49DDF81090CDF819
:10174C0000804A460968386807F08AF94FF440234C
:10175C00CDF84480D5F8008010934FEAC93C08F1CD
:10176C0008034FEAC8194FF4803249EA03394FF4A1
:10177C00F833CDE90E230DF1280E0EAD95E80F00D0
:10178C008EE80F00CDF82C909EE80F0085E80F0036
:10179C0006AD85E80F004FF4002233490CF4782C89
:1017AC002B4609684CF0806C089238684246CDF89C
:1017BC0024C007F09BF93046FFF7A0FB3A68DBF832
:1017CC00000011680AFA00F30B43136000F11003D8
:1017DC00013C0AFA03F351681942FCD1031D42F88B
:1017EC002340012320491468086800F1100103FA12
:1017FC0001F183402343136053680B40FCD101215A
:10180C001D4C04302370039C42F820401B481C4A9A
:10181C0003701170084673E60A4634E7074899E6E8
:10182C002CA40020B0A80620ACA80620A8A806204E
:10183C00C2AD0620C1AD0620489C00205096002069
:10184C000000205030A406204F96002084960020E3
:10185C002CA406200000003B000080430000D901AE
:10186C0075090020C9AD06208CAD0620AC9900206E
:10187C00A49900209CAD0620BCAD0620BDAD062071
:10188C00C3AD062088AD06202DE9F04F2DED028B5F
:10189C0089B09DF858A01E46BAF1020F98BF864B2E
:1018AC009DF8544098BF53F82AC002948C450446C6
:1018BC000F4690469DF8505007D3804B984204D861
:1018CC00731E172B01D8182D05D9002009B0BDECBB
:1018DC00028BBDE8F08F4FF4C0220021784807F04E
:1018EC0095FB0023774A7849136042460F6077498D
:1018FC000B60774B02991E70764B197076499319D1
:10190C0081F800A0754E764912F8010B305C9342B9
:10191C0001F8010BF8D1735D05201A460393714B46
:10192C00714D1A7001F070FE07EE904A07EE100A26
:10193C00F8EEE77AB8EE477A6C4887EE278A28608B
:10194C0007F042F80121286806F08CFF02460124BA
:10195C004FF000462868DFF8B48102EB4203C8F868
:10196C00002000EBC303043203F58653944000F5CA
:10197C00005C1E61DFF898B11E615D49CCF8004037
:10198C0006F08CFF4FF000095C465A4B0BF1180621
:10199C001860CDF8009014F8012F0123D8F800102E
:1019AC00286807F05DF8A642F3D129681BF8010FEF
:1019BC0001F12F4101F56001090D0631C9B200F0AA
:1019CC004DFC5E45F1D10023039C0093224601237C
:1019DC00D8F80010286807F043F82B68204603F16C
:1019EC002F4303F560031B0D991DC9B200F036FCA3
:1019FC00029B002B5BD0DFED407A78EE277A3D4BD3
:101A0C00BCEEE77A1A684FF480330793531C190322
:101A1C0041EAC31117EE103A98B2002845D007EEF0
:101A2C00100AB8EE477ADFED356A77EEC77A67EEC3
:101A3C00A67AFCEEE77ACDED027A9DF808301B020F
:101A4C0043EA00430493039B21F0F8511B0603F077
:101A5C00F8530B4305934FF4502301242868D8F80E
:101A6C0000100693036804FA01F623EA06030360E8
:101A7C0004AB07F03BF839465046FFF7E3F9002278
:101A8C001F4B29681A70D8F80030086804FA03F361
:101A9C000343032620460B601A491B4B0A701E7029
:101AAC0009B0BDEC028BBDE8F08F0346C8E70121FD
:101ABC00039800F0F1FB9EE7449600200084D717B2
:101ACC002CA40020B0A80620ACA80620A8A80620AC
:101ADC00C2AD0620C4AD0620C1AD06205096002034
:101AEC00489C0020C5AD062030A4062000002050E4
:101AFC003C9700202CA406200000003B00008043F3
:101B0C00BCAD0620BDAD0620C3AD062088AD0620B9
:101B1C004F9600202DE9F04F2DED028B8FB09DF8E4
:101B2C007CA00293BAF1020F98BFB64B9DF86840A7
:101B3C0098BF53F82AC0029B049403FB02239DF820
:101B4C0078400B44634503948846044617469DF839
:101B5C0070509DF8746007D8AB4B984204D86B1E3C
:101B6C00172B01D8182E05D900200FB0BDEC028B15
:101B7C00BDE8F08F4FF4C0220021A44807F046FACC
:101B8C00A34A02991760A34AA34B1160A34A039975
:101B9C001570A34AC3F800801170A24A1B9B82F8EF
:101BAC0000A0A148A14A1D4413F8011B415C9D42B1
:101BBC0002F8011BF8D1835D05201A4605939C4B56
:101BCC0064001A7001F020FD07EE904A07EE100A2F
:101BDC00F8EEE77AB8EE477A9648974D87EE278A63
:101BEC00286006F0F1FE0121286806F03BFE024653
:101BFC004FF000440121286802EB4203DFF86C82AD
:101C0C0000EBC30303F586531C61C8F800201C616C
:101C1C000432039B00F50056914031603BB1049BAC
:101C2C00002B00F0E480854906F038FE06E0049BAA
:101C3C00002B40F0E080824906F030FEDFF830B235
:101C4C004FF000095C467F4B0BF118061860CDF87D
:101C5C00009014F8012F0123D8F80010286806F022
:101C6C00FFFEA642F3D129681BF8010F01F12F41A9
:101C7C0001F56001090D0631C9B200F0EFFAB34568
:101C8C00F1D10024059ED8F80010324601232868B3
:101C9C00009406F0E5FE2B68304603F12F4303F564
:101CAC0060031B0D991DC9B200F0D8FA654B049A5C
:101CBC001B68002A00F0DE80039A002A00F0E780FF
:101CCC004FF44022099403F10F0C08920AAE06ACB3
:101CDC000733DFED5D7A78EE277A4FEA0C3C4FF450
:101CEC0080324CEAC31C4FF4F833BCEEE77ACDE9F2
:101CFC00062394E80F0086E80F00CDF82CC096E878
:101D0C000F0084E80F00099B23F4782343F48033FD
:101D1C00099317EE103A9AB2002A70D007EE102AE7
:101D2C00B8EE477ADFED496A77EEC77A67EEA67AA6
:101D3C00FCEEE77ACDED037A9DF80C301B02012600
:101D4C0043EA02434FF480720693089B079923F0F1
:101D5C00FA7323F48033059843F4A02308932B687B
:101D6C0060F31C6107911E6303F505531A630F2082
:101D7C00374900F03FFC31460F2000F0F9FB029B85
:101D8C001BB1049B002B40F09780002031492D4A59
:101D9C00234612680870D8F80010286806F0A6FED2
:101DAC005046FFF7ABF801222968D8F800000C6800
:101DBC0002FA00F323430B6000F110039A404B68C6
:101DCC001342FCD1029B01EB80000361013F4B6885
:101DDC001340FCD1076101201F4A20491370204A8F
:101DEC000B7013700FB0BDEC028BBDE8F08F1D496A
:101DFC0006F054FD22E71C4906F050FD1EE7134681
:101E0C009DE700BF4496002000C2EB0B2CA40020E1
:101E1C00ACA80620A8A80620B0A80620C2AD0620B3
:101E2C00C4AD0620C1AD062050960020489C002071
:101E3C00C5AD06200000205030A40620A09600203E
:101E4C00189700202CA406200000003B00008043C3
:101E5C00A50A0020C9AD0620BCAD0620BDAD0620EC
:101E6C00C3AD0620F4960020C896002088AD06204D
:101E7C004F960020039AA2B1049A03F10C0C09921C
:101E8C004FF440220AAE089206AC063321E70992C1
:101E9C004FF4402203F1060C08920AAE06AC05334F
:101EAC0017E7049A03F1050C09924FF440220AAE8D
:101EBC00089206AC04330CE702264FF400702A6833
:101ECC00002102F505531663D863102000F0B0FD15
:101EDC004FF480320C4B30461A600C4906F05AFE17
:101EEC0000220B4B0B4918600B4B0F201A7006F09D
:101EFC0051FE4FF0E0236FF07F420721074E306018
:101F0C005A619A61196140E7000008E0AD91002028
:101F1C0048AD06209D910020C8AD06204CAD062092
:101F2C00024B187880F00100704700BFBCAD062052
:101F3C002DE9F04FAD4C8A46AD4925680968AD4B8B
:101F4C0001FB0555AC491B7809688BB00D44AB49B6
:101F5C000C7801464BB1AA4B1B68AA4814700D6053
:101F6C00CAF800300BB0BDE8F08FA74B022C1868F4
:101F7C0007D9461CA248731B036001209D4E30708C
:101F8C00EBE7A24B461C53F824706B1E834201975F
:101F9C0057D89B48731B012C036058D09C48022CCB
:101FAC0090F800B040F0B480BBF1030F00F0048156
:101FBC0000200490002DE0D09E464FF000094FF019
:101FCC00010C9448CDE905340078CDE9071A03904B
:101FDC00914809920778DFF82C82019ACDF808B065
:101FEC00029B58F82E60032B08EB8E0A00F08580BC
:101FFC00002F00F08B8000210846884C14F801BBA0
:10200C00ABF1020B5FFA8BFB0CFA0BF3334023FAA8
:10201C000BF38B400131B94240EA0300EED10EF1D3
:10202C00010E09F10109724598BF4FF0000E4D45A4
:10203C00CAF80000D4D1DDE90534DDE9071A099AA4
:10204C009BE76F487B1B3344012C0360A6D170487F
:10205C0090F800B0BBF1030F00F0E4800020049076
:10206C00002D8AD0CDE907129E464FF000094FF0A3
:10207C00010C52466748CDE905340078DFF88481BD
:10208C0003906548CDF808B00778029B38F81E60BD
:10209C00032B08EB4E0A27D06FB3002003465F4C8E
:1020AC0014F801BBABF1020B5FFA8BFB0CFA0BF1D2
:1020BC00314041FA0BF1814001301943B8428BB2E7
:1020CC00EED1AAF80030019B0EF1010E09F10109C5
:1020DC00734598BF4FF0000E4D45D6D1DDE9053460
:1020EC0092460799089A48E7039B002BD4D1049B8E
:1020FC005E40002FD1D13B46E3E7039B002B7FF4DE
:10210C0077AF049B5E40002F7FF475AF384686E7AF
:10211C00BBF1030F5DD000200490002D3FF42DAFD8
:10212C001F463C48CDF808B00078CDE90534029B39
:10213C00DFF8D08003903848032BCDE907124FF01D
:10214C00000952464FF0010E067818F807C008EB4C
:10215C00070A27D076B300200346304C14F801BB95
:10216C00ABF1020B5FFA8BFB0EFA0BF101EA0C01DF
:10217C0041FA0BF1814001301943B042CBB2EDD1A1
:10218C008AF80030019B013709F10109BB4298BF65
:10219C0000274D45A2D0029B18F807C0032B08EB73
:1021AC00070AD7D1039B002BD4D1049B83EA0C0CD8
:1021BC00002ED0D13346E3E71648007800287FF490
:1021CC00F7AE012616480078023806FA00F00490A3
:1021DC00F0E61048007800289DD10120104E36788A
:1021EC00023EB040C0B2049097E700BFACA80620F6
:1021FC00A8A80620BDAD0620B0A80620C1AD0620BB
:10220C00B4A806202CA40020B8A8062038960020DC
:10221C00C3AD0620C4AD0620C2AD0620489C0020EC
:10222C00C5AD06200648007800287FF417AF0120C2
:10223C00044E3678023EB04080B2049010E700BFE6
:10224C00C4AD0620C5AD06200346024A02481278EA
:10225C001A707047C9AD0620C4A8062010B44FF4FC
:10226C0080740C4B53F8202003EB8003C00082F0E9
:10227C00400200F1804003F5805C02F0C00200F5E2
:10228C00203003F54053CCF8002041601C605DF811
:10229C00044B704704800340C00000F180400430C0
:1022AC0000F520331B6800F5243083EA014303F466
:1022BC0040330360704700BF30B44FF0000343EC71
:1022CC00440043EC400005254FF480740B4BC200D6
:1022DC0053F8201003EB800081F0400102F18043A1
:1022EC0003F5203301F0C00200F5805100F5405099
:1022FC000A605D60046030BC704700BF048003401E
:10230C0010B44FF480711F240C4B53F8202003EBB6
:10231C008003C00082F0400200F1804003F5805C35
:10232C0002F0C00200F5203003F54053CCF8002039
:10233C0044605DF8044B1960704700BF0480034093
:10234C000FB400B583B0049C074803F0F7FB3CB115
:10235C0005A92046019103F021FA044803F0EEFB95
:10236C00012003F033FA00BF7C9400208C940020F1
:10237C00EFF3108072B6064BD3E8CF1F0122002971
:10238C00FAD1C3E8412F0029F6D1BFF35F8F704714
:10239C00D79F00200023034AC2E88F3F80F31088A8
:1023AC00704700BFD79F002070B58646EFF31085AD
:1023BC0072B6124CD4E8CF6F0120002EFAD1C4E8CB
:1023CC00460F002EF6D1BFF35F8F4FF0010CC808FB
:1023DC0001F007030CFA03F31EF800C01CEA030615
:1023EC0008D14CEA030C0EF800C0C4E88F6F85F3DB
:1023FC00108870BD1046FFF7A3FF00BFD79F0020C9
:10240C00F8B5EFF3108772B61C4ED6E8CF5F0124F7
:10241C00002DFAD1C6E8454F002DF6D1BFF35F8FE2
:10242C009A421BD8012502E00132934222D3D408F0
:10243C0010F804E002F0070C05FA0CFC1EEA0C0F75
:10244C00F2D14EEA0C0E00F804E010460023C6E868
:10245C008F3F87F31088984207DBF8BD0023C6E84E
:10246C008F3F87F310884FF0FF300029F5D0069886
:10247C00FFF766FF4FF0FF30E8E700BFD79F002063
:10248C0000B5EFF3108E72B6104BD3E8CFCF01220C
:10249C00BCF1000FF9D1C3E84C2FBCF1000FF4D103
:1024AC00BFF35F8F01224FEAD10C01F0070102FA52
:1024BC0001F110F80C2022EA010200F80C20002295
:1024CC00C3E88F2F8EF310885DF804FBD79F002094
:1024DC00044A1078431CDBB2182B28BF102313704E
:1024EC00704700BFBE99002010B5054C82B0014664
:1024FC001F23182200940348FFF782FF02B010BD7F
:10250C00909400203CA406204FF0E022936843F006
:10251C0000539360704700BF0021044B03F120026D
:10252C00C3E88F1F01339342FAD17047CC9F002030
:10253C004FF0E0234FF08032C3F80024C3F804249A
:10254C00C3F80824C3F80C24C3F81024C3F81424CB
:10255C00C3F81824C3F81C24C3F82024C3F824247B
:10256C00C3F82824C3F82C24C3F8302462B670476F
:10257C00012300F01F029340400941B1800000F19B
:10258C00604000F56140C0F8803103607047024A3A
:10259C00203042F82030704700E100E00123064A69
:1025AC00410952F8212000F01F0003FA00F01040FE
:1025BC00003818BF0120704700E100E001224309F8
:1025CC00034900F01F008240403341F8232070473C
:1025DC0000E100E0054A10309268054B52F82000EB
:1025EC00C01A2F288CBF00200120704700ED00E09E
:1025FC00C0990020F8B50D46EFF3108772B6124E55
:10260C00D6E8CF2F0123002AFAD1C6E8423F002A90
:10261C00F6D1BFF35F8F0D4B00F110049B680C4A91
:10262C0053F82430934203D0994201D001F0BEFA02
:10263C00064B9B6843F82450BFF35F8F0023C6E81A
:10264C008F3F87F31088F8BDD59F002000ED00E088
:10265C00110100102DE9F04F81468B46164683B0D0
:10266C00EFF3108372B6DFF8D0A10093DAE8CF1F36
:10267C0001230029FAD1CAE8413F0029F6D1BFF362
:10268C005F8F664B93F90040002CC0F2A080644D24
:10269C0004EB440705EB870898F8061009F11009BC
:1026AC001970604BBF009B6853F829006300411BF5
:1026BC002F292FD95C49884240F0A4801C445B4BE5
:1026CC0002372F44043BDB1BC3F34A036FEAC343BB
:1026DC004FF421416FEAD34325F8241005EB840411
:1026EC0063804BF60153A380FF2348F00100E67191
:1026FC00C4F808B0A3714B4B9B6843F82900BFF397
:10270C005F8F0023CAE88F3F009B83F3108803B0D0
:10271C00BDE8F08F20F0010E9EF80710B1422ED8C4
:10272C004FF42143EB53414BB91C2944043B043770
:10273C005B1A2F44AEF10401C91BC1F34A043C4996
:10274C00C3F34A030B432143A8F804103949A8F8F2
:10275C0002304AF6AA2073465B1B5B415843000DBE
:10276C0088F8076088F80600C8F808B048F001003F
:10277C00CEF80010BFE7D179B1422ED996469EF91A
:10278C0006C00CEB4C02BCF1000F05EB8202F2DA36
:10279C004BF601510EF10402A8F10407BF1AC7F35E
:1027AC004A076FEAC7476FEAD7478EF8064003EB34
:1027BC000408204C05EB8803AEF8047045F828405B
:1027CC00998083F806C0DE71C3F808B093E701F076
:1027DC00EDF9124B93F9004059E7724632F8041F99
:1027EC00490514D44915023102EB410101916FF0F6
:1027FC000701C91B019F491B3944C1F34A0141F42C
:10280C006041C9E7019301F0D1F9019B56E701F54D
:10281C00FF1101F5FF511F31E4E700BFBFAD0620EA
:10282C00C099002000ED00E011010010F09900208B
:10283C0000E0FFFF01488047D59F00202DE9F04FB5
:10284C0083B0EFF3108A72B6714ED6E8CF2F012306
:10285C00002AFAD1C6E8423F002AF6D1BFF35F8FB7
:10286C006C4B00F110089B686B4A53F8285095424A
:10287C0045D08D420C4650D0684FEB1B2F2B3ED8C9
:10288C0001214FEA50194FEA890909F1604909F50C
:10289C00614900F01F0301FA03F0D9F80030C9F8C0
:1028AC00800000EA030BBFF35F8FEFF30581C9B221
:1028BC00002934D0884505D0CDE9001001F076F917
:1028CC00DDE9001025F0010EDEF808C0644505D1E5
:1028DC0089E0D3F808C0644531D09E469EF90620A5
:1028EC0002EB4203002A07EB8303F2DA644561D062
:1028FC00BBF1000F20D0C9F88001C9F80000454B8E
:10290C009B6843F82850BFF35F8F0023C6E88F3FC6
:10291C008AF3108803B0BDE8F08F1546EFE725F079
:10292C00010EDEF808C06445D8D19EF90640734606
:10293C00002C08DA154646E0C9F88000DFE793F969
:10294C000640002C37DB04EB440C07EB8C0C9CF89A
:10295C000710DCF80820D9719A609CF906206100F8
:10296C00002A9A713DDBBCF804E05FEA4E5E05D5A7
:10297C000EF5FF1E0EF5FF5E0EF11F0E6FF0070C2D
:10298C000A194FEA6E5E920002EB4E0208323A448C
:10299C00ACEB030C6244C2F34A026FEAC2426FEA28
:1029AC00D2429A801E4B21441A7807EB81011C708D
:1029BC008A719DE77346D9B9FF228EF806204BF633
:1029CC000152AEF80420164C4AF6AA2294F800C024
:1029DC001946C91B49414A43120D83F806C022709F
:1029EC0086E7104ADDE79EF906407346002CAADA0A
:1029FC000D4A0E4CD21A083AC2F30A316FEA015151
:102A0C006FEA115144EA5202DA80998070E700BFF4
:102A1C00D59F002000ED00E011010010C0990020AE
:102A2C00BFAD062001BDFFFFFA99002000F8FFFFA3
:102A3C004FF0FF0C20F0030303F1604303F56443F4
:102A4C0000F003001A68C0000CFA00FC22EA0C0229
:102A5C0081400A431A607047F0B5EFF30585EDB27B
:102A6C00EFF3108C72B62649D1E8CF2F0123002A40
:102A7C00FAD1C1E8423F002AF6D1BFF35F8F214E55
:102A8C0040F0010EB4684AF6AA2354F825701E4A89
:102A9C000446A41A644163431B0D77455BB21BD0FB
:102AAC0092F906409C421CD092F912409C4223D0D1
:102ABC0092F91E409C4221D092F92A409C4208BFB8
:102ACC0003240FD0114A0024157813708571C1E8C6
:102ADC008F4F8CF31088F0BDB2680D4C42F8254036
:102AEC00F0E7002404EB440402EB8402FF2494710D
:102AFC004BF601549480E5E70124F3E70224F1E757
:102B0C00D59F002000ED00E0C0990020BFAD06204D
:102B1C001101001010B5074C82B0014605230022AC
:102B2C0000940548FFF76CFC0028A8BFC0F13300E7
:102B3C0002B010BDAC940020CAAD0620014B0B4472
:102B4C0003607047CC9F002070B5104C104DAC4208
:102B5C000ED2FF26236863B1FFF7BAFC014620466C
:102B6C00FFF7ECFFA680BFF35F8F0834AC42F1D3C4
:102B7C0070BDFFF7ADFC01462046FFF7DFFF267165
:102B8C00BFF35F8F0834AC42E4D370BD649A00206D
:102B9C00749A002010B50446FFF79AFC01462046B3
:102BAC00FFF7CCFFFF232371BFF35F8F10BD00BF76
:102BBC0010B504460120FFF797FC034B0344236038
:102BCC00BFF35F8F10BD00BFCC9F0020024B0B44A6
:102BDC000360BFF35F8F7047CC9F00200D4B1A68CA
:102BEC00EFF3108172B6D2E8CFCF0120BCF1000F09
:102BFC00F9D1C2E84C0FBCF1000FF4D1BFF35F8FD9
:102C0C0000221B68C3E88F2F81F3108840BF00207F
:102C1C000021704784AD06202DE9F04F2DED028B7D
:102C2C0085B0EFF30583DBB2103B9A0818BF012285
:102C3C004FF0010103F0030B18BFAF4DAF4B08BFB2
:102C4C00AF4D0BEB820253F8226001FA0BF205F543
:102C5C0041539FEDA78B01925A602FE0B3881C045F
:102C6C0040F19380B379002B40F0DD80B6F9082059
:102C7C00002AC0F21E81736902EB420203EBC2030D
:102C8C00D3E90247B7F1FF3F08BFB4F1FF3F0ED0C5
:102C9C0005EB8B01AB6A0A69D21AE31A934205D38E
:102CAC0001232A6A03FA0BF3134200D10C61284664
:102CBC0000F0ACFBA042B941C0F2FB80B6F9083081
:102CCC00019A002B0093EA63C8DBD6F8148003EB5F
:102CDC004309284608EBC907D7E9024A00F096FBDE
:102CEC00A04271EB0A01B9DBBAF1000FC0F2C3804C
:102CFC00D7E90431834A934200F0ED807A88B6F923
:102D0C00080092B242EA0040984702460B4652EA4B
:102D1C00030100F0B080002B80F2D180B4EB020EE6
:102D2C006AEB030A38F93930C7E902EA002B95DB64
:102D3C00716903EB430201EBC202D2E90270BE459A
:102D4C007AEB000C4FEA430288DBB4462CF8083FC0
:102D5C0006E003EB430001EBC0005A00D0E902701F
:102D6C00BE451A447AEB000001EBC20404DB31F9D6
:102D7C003230A446002BECDA28F83930009BACF842
:102D8C000030B3881C043FF56DAF3369EFF310824C
:102D9C0072B6D3E8CF0F01210028FAD1C3E8401F47
:102DAC000028F6D1BFF35F8F4FF6FF74B088002375
:102DBC00316900B2B480C1E88F3F82F31088984229
:102DCC00FFF650AF0746A946746906F1080807EBF1
:102DDC00470E04EBCE03D3E90250B6F90830C446D3
:102DEC00002B13DBB246009704E034F936309446DE
:102DFC00002B09DB03EB430604EBC602D2E902719C
:102E0C00BD4270EB0101F0DA5646009FACF8007041
:102E1C0034F93E7024F83E30002FD8DAB3794D46A1
:102E2C00002B3FF423AF0023B371B6F9083006F141
:102E3C000808581C3DD01A46776903E08046591C97
:102E4C003FF416AF03EB430107EBC100B0F802C02F
:102E5C001C461CF4004F9E4637F93130EED094429C
:102E6C0080ED028B05D0A8F80030328927F831208C
:102E7C0034817246E3E738F8393033813369EFF344
:102E8C00108272B6D3E8CF0F01210028FAD1C3E823
:102E9C00401F0028F6D1BFF35F8F7388316928F883
:102EAC003930009B73800023C1E88F3F82F3108878
:102EBC00D4E640BF05B0BDEC028BBDE8F08F2846D0
:102ECC00CDE9022300F0A2FA029A039B10EB020E4A
:102EDC0043EB010A26E708460B6902919847002844
:102EEC00C9D00299D1E9002311E700BFAFF30080EC
:102EFC00FFFFFFFFFFFFFFFF00800B4058AD0620D8
:102F0C0000000B40192B00202DE9F84F364C256999
:102F1C002DB1BDE8F84F0A213448FFF70FBEDFF89A
:102F2C00E4800321404600F05FFA0326C4F80C80CD
:102F3C00FFF7CEFA4FF0504C2D4B26700344236113
:102F4C00DCF800300F216370636961801D834FF0E2
:102F5C000405A3F878504FF00505A3F890504FF0F6
:102F6C000605A3F8A8504FF007050E214FF6FF7287
:102F7C0008274FF00A0EA3F8C0504FF001094FF08C
:102F8C000C0C4FF0020B4FF0090A0D204FF00B0503
:102F9C00A3F868111749A280A3F808E1A160A3F86F
:102FAC0048B0A3F8F0A0A3F82051A3F838C1A3F8B7
:102FBC005001A3F83090A3F86060A3F8D8701A8081
:102FCC000D4B3046C8F820700C49DC60FFF712FB43
:102FDC0049463046FFF7CCFA094B0A211F640348D7
:102FEC00BDE8F84FFFF7AABD089A002084AD062073
:102FFC00CC9F0020FFFF100058AD0620192B00209D
:10300C0000200B4000000B4000487047089A00203D
:10301C00F8B59DF82050044617461E4635B900F009
:10302C00FDF9874266EB010100295CDB2169EFF3B6
:10303C00108372B6D1E8CF0F01220028FAD1C1E873
:10304C00402F0028F6D1BFF35F8FB4F902206569D9
:10305C0002EB4201002A4FEAC10C206905EBC101C9
:10306C0039DB35F80CE0A4F802E04FF0000EC0E8B4
:10307C008FEF83F310884888069B0130C0F30E0055
:10308C00012838BF01200B61079B48804B61C1E9C7
:10309C00027640EA02402369EFF3108172B6D3E85E
:1030AC00CF7F0126002FFAD1C3E8476F002FF6D14E
:1030BC00BFF35F8FA38825F80C30A2802369C3E887
:1030CC008FEF81F310880122E368217803F5015317
:1030DC008A405A60F8BD0022C0E88F2F83F3108815
:1030EC004FF0FF30F8BD2846F8BD00BF0146F0B5E3
:1030FC000069EFF3108772B6D0E8CF5F0124002D82
:10310C00FAD1C0E8454F002DF6D1BFF35F8FB1F96E
:10311C0002E04C690EEB4E0CBEF1000F4FEACC05F1
:10312C00086904EBCC0C3CDB665B4E800026C0E8E7
:10313C008F6F87F31088BCF80200CCE902230130B2
:10314C00C0F30E00012838BF0120059BACF802002B
:10315C00CCF81030069B40EA0E40CCF814300B69CA
:10316C00EFF3108272B6D3E8CFCF0127BCF1000F7A
:10317C00F9D1C3E84C7FBCF1000FF4D1BFF35F8FE2
:10318C008B886353A1F804E00B69C3E88F6F82F35B
:10319C0010880122CB68097803F501538A405A60E4
:1031AC00F0BD0023C0E88F3F87F310884FF0FF304D
:1031BC00F0BD00BF03464089B0EB214F37DD5869A5
:1031CC000A1402EB420210B500EBC2001C69EFF3CB
:1031DC00108C72B6D4E8CFEF0122BEF1000FF9D1FA
:1031EC00C4E84E2FBEF1000FF4D1BFF35F8F4288BD
:1031FC0089B292B28A4207D000221B69C3E88F2F92
:10320C008CF31088002010BD42F400424280012152
:10321C00002218699971C0E88F2F8CF310881C78E4
:10322C00DA68084602F50153A140596010BD002030
:10323C00704700BF407870472DE9F04182B00646D8
:10324C0000F0ECF84FF47A7304464FF0FF306FF057
:10325C000042E6FB0341A04272EB01033ABF044675
:10326C0015460D46A61F45F1FF37B44275EB070313
:10327C003CBF0026374600F0D1F8301A67EB01014D
:10328C00012871F1000106DA2046294602B0BDE89A
:10329C00F04100F03FB900F0C1F8864267EB010144
:1032AC0000290ADB0021174B3246009316483B4697
:1032BC000191FFF71BFF0130E6D04FF0000C134AD1
:1032CC001349536A9F4204D8906AB042DCD29F42A1
:1032DC00DAD10B68EFF3108072B6D3E8CF8F5FF0C2
:1032EC00010EB8F1000FF8D1C3E848EFB8F1000FA8
:1032FC00F3D1BFF35F8F0B68C3E88FCF80F31088D7
:10330C0020BFDEE7DD2A0020089A002000000B40D9
:10331C0084AD06202DE9F04306460D4683B0EFF34D
:10332C000584E4B23CB12D4B5A6AAA421CD200204F
:10333C0003B0BDE8F0832A4FD7F80C9097F80080C3
:10334C00484600F063F808F1040859F828301B1AB5
:10335C00301A65EB0101984271F1000110DB20BFBE
:10336C001E4B5A6AAA42E2D314BF012400249B6A62
:10337C00B34234BF204644F0010003B0BDE8F083F3
:10338C0000F04CF8864265EB0101002914DB154B6B
:10339C003846CDE9003432462B46FFF7A7FE011E16
:1033AC000ADD0E4B5A6AAA4216D39B6AB34211D35A
:1033BC000B48FFF7FFFEB6E7084B5C6AAC42B6D38E
:1033CC00641B18BF01249B6AB34234BF204644F0EF
:1033DC000100ADE7AA42EBD120BFE9E700000B40AA
:1033EC00089A0020DD2A002010B4054B054C064A33
:1033FC00A04214BF1846581C5DF8044BFEF7D4BF0E
:10340C0040A4062000800B40C89400200346416A6B
:10341C000A46986A596A8A42FAD17047034B596A2C
:10342C000A46986A596A9142FAD1704700000B40DB
:10343C0030B4154A536A9C46946A536A6345FAD170
:10344C00021959414FF0000528BF01250E4B5B6A4C
:10345C00B5B15A1C08BF1A4608D04FF0FF310A46C6
:10346C000948436A8B42FCD38B4207D1064902E0E0
:10347C00486A984202D1886A9042F9D330BC7047AE
:10348C009942EDD8F0E700BF00000B401F4B98426B
:10349C000AD84FF47A731E4A03FB00F0916A936AC0
:1034AC005B1A9842FBD870474FF47A7130B4184BC2
:1034BC00A0FB01015A6A94469C6A5A6A6245FAD189
:1034CC0003194A414FF0000528BF01259DB9104949
:1034DC00496A8A4203D90E48416A9142FCD391420F
:1034EC0007D10B4902E0486A904202D1886A98429F
:1034FC00F9D330BC7047064B5A6A531C08BF1346AD
:10350C00EFD04FF0FF321346E5E700BF9BC420001D
:10351C0000000B40074A536A9942FCD8994207D1E4
:10352C00044B02E05A6A914202D19A6A9042F9D84D
:10353C00704700BF00000B4000EB400C4FEA8C0CB6
:10354C000CF1804C0CF5803CF0B51646DCF80420F0
:10355C00051FB2F5803F38BF4FF48032EDB238BF53
:10356C00CCF80420012D2AD94FF40067254C0CF51A
:10357C004052176054F82020B2B9DCF80020012D1D
:10358C0082EA461202F0E0020CF5805632602AD92B
:10359C004FF4006144F820304FF480330CF50052A6
:1035AC001160CCF80430F0BD6769B7FBF2FE0EF188
:1035BC00010E0EEB4E0EBEF1030EFCD2DDE701291F
:1035CC00D2D103240CF540521460DCF80820D20749
:1035DC00FBD5DCF800200B4C82EA461202F0E0022C
:1035EC000CF5805632600122DCF800504D4005F09D
:1035FC000305356002FA01F1DCF808200A42FBD021
:10360C00C6E700BF48A40620014B53F820007047C2
:10361C0048A40620584B2DE9F0431C6C1746B4F512
:10362C00803F38BF4FF4803283B038BF1A64032216
:10363C0080460E46514B504DDA636C6CE307FCD55B
:10364C00EB6B4F4A83F0200303F0E003D363EB6B87
:10365C00494D83F0010303F00303D3636C6CA4079F
:10366C00FCD54FF400624FF48039464B464CDA637C
:10367C00464B4246636101213346C5F840904448AD
:10368C00009700F057F94FF400616B6B07FB06F6DF
:10369C004B4538BFC5F83490384B2269B8FBF6F669
:1036AC0019633AB16369B3FBF2F3013303EB4303E0
:1036BC00033BFDD23049324A0B6B03F0E00313633A
:1036CC000B6B83F0020303F0030313638B6B58073C
:1036DC00FCD54FF400654FF480332A4A15632D4A0C
:1036EC004B6322610A6C9A424FF0030238BF0B64A1
:1036FC00224B2149DA634B6CDA07FCD5CB6B204AA1
:10370C0003F0E003D363CB6B1B4983F0010303F09D
:10371C000303D3634B6C9B07FCD54FF480334FF4FE
:10372C000065184A6661D5630B64CA6C9A4238BF4F
:10373C00CB644FF40061114BA26999643AB163698F
:10374C00B3FBF2F3013303EB4303033BFDD24FF422
:10375C0000604FF48031084A094D936C83F04003AC
:10376C0003F0E003AB64074B084DA5619864D1648A
:10377C0003B0BDE8F08300BF000001400030014001
:10378C00001001400020014048A40620006CDC021F
:10379C0000000540001BB7002DE9F04F4FF4A07856
:1037AC00994685B0CDE902125F4CDFF884A15445EF
:1037BC000AD908F1FF38A4F53B54B8F10F0FA4F166
:1037CC002004F4D1002069E0072304F5372201948A
:1037DC0003FB03F402F5D872B2FBF4FE70454FF014
:1037EC00010C4FF002074FF003064FF004054FF0A9
:1037FC0005013FD0B3F1010E00F094800EFB03F4F1
:10380C00B2FBF4FB58454CD019B301FB03F4B2FBEB
:10381C00F4FB58454FD0E5B105FB03F4B2FBF4FBC8
:10382C00584553D0AEB106FB03F4B2FBF4FB58453C
:10383C0057D077B107FB03F4B2FBF4FB58455BD0D0
:10384C00BCF1000F05D00CFB03F4B2FBF4FB834579
:10385C005DD0734603FB03F4B2FBF4FE704501F13B
:10386C00FF3105F1FF3506F1FF3607F1FF370CF19B
:10387C00FF3CBFD104FB1024002CBBD19E464A4612
:10388C00DDF808B0DDF80C900120284901FB08F1A7
:10389C00CBF80010C9F80030C2F800E005B0BDE864
:1038AC00F08F04FB1024002CAED14A46DDF808B092
:1038BC00DDF80C90E8E704FB1024002CABD14A4651
:1038CC008E46DDF808B0DDF80C90DDE704FB102423
:1038DC00002CA7D14A46AE46DDF808B0DDF80C90B6
:1038EC00D2E704FB1024002CA3D14A46B646DDF8DF
:1038FC0008B0DDF80C90C7E704FB1024002C9FD116
:10390C004A46BE46DDF808B0DDF80C90BCE704FB77
:10391C001024002C9DD14A46E646DDF808B0DDF8AF
:10392C000C90B1E7019C44E750262F00001BB70018
:10393C0050F80C0070B4039D04682D0345EA034550
:10394C001B4B002CB3FBF1F3B2FBF3F61FDB194A54
:10395C00194B904214BF4FF480424FF40042174C65
:10396C001A6003F580531A60A36832EA0303FBD193
:10397C00212200F540530433016086601A6002680E
:10398C00002AFCDA0822C5601A6070BC7047036814
:10399C0003F03F038B42DAD18368C3F30B03B342CA
:1039AC00D5D1C36803F4EE23AB42D0D1EDE700BF11
:1039BC00001BB700008005400020024000000240C0
:1039CC000A4B0B490B4A5960D3681904FCD40A4BB7
:1039DC00D26843EA00130949534009481940054A83
:1039EC00C160D3681B04FCD4704700BF002010409A
:1039FC000020FE5A000010400000FE5AF001FE5A52
:103A0C0000101040014B024A5A60704700201040D1
:103A1C000001FE5A30B44FF080441C4B1C60E0B1E6
:103A2C001B4CA3F54053DC611A4C40F001004440A0
:103A3C001C62596298624FF080454FF0E061134B65
:103A4C001548164C1D60846019604AB930BC4FF0A3
:103A5C000042A3F580531A607047114BD861EAE716
:103A6C004FF47A7303FB02F2B2F1807F2ABF6FF03E
:103A7C007F4313461A464FF080410A4C0848236096
:103A8C00094B426030BC1960704700BF00B00D405C
:103A9C00D3C007B02D3FF84F00A00140F3FFFF014A
:103AAC0000800D40C0A8062000A00D40012300EBB3
:103ABC004000800000F1804000F5841041600360FC
:103ACC00704700BF002370B5DB8A04460D46002208
:103ADC0042E800F2520254BF1021042144F2522059
:103AEC00984786462B462246F446BDE870400A218C
:103AFC004FF48170604700BF0023DB8A002242E84C
:103B0C0000F2520201D4102118470421184700BFBB
:103B1C0008B5034608462BB193FAA3F3B3FA83F323
:103B2C0041F020001946FFF7CDFF00BF08B5034652
:103B3C000846191E02DB1AB140F03000FFF7C2FF35
:103B4C0040F02000FAE700BF034AD2F82838002BD7
:103B5C00FBD0BFF35F8F704700000E400021044B79
:103B6C00044ABFF35F8F43F8041B9342F9D17047AB
:103B7C000C080E402C080E4010B44FF48D704FF40E
:103B8C002A64064A064B07491460D06019605368D2
:103B9C00002BFCDA5DF8044B704700BF008004403A
:103BAC0000A0044000B0FA00704700BF08B50148FF
:103BBC00FEF7C6FBEC94002038B5054C054DAC4225
:103BCC0004D254F8043B9847AC42FAD338BD00BF3A
:103BDC00749A0020B49A002010B40748074C084B84
:103BEC00084A094904601A608B6832EA0303FBD166
:103BFC005DF8044B704700BF002002407F3BEFEFA5
:103C0C0000300240F6FFF30300000240044BDB6C73
:103C1C00B3F5004F03D14FF48022024BDA647047A6
:103C2C0000001150002011504FF0E022044BD2F84C
:103C3C00881D0B43C2F8883D10EE3004704700BF5E
:103C4C00030330006FF06041044B054A1960936820
:103C5C00DB4333F06043FAD1704700BF00300240C1
:103C6C000000024010B545F25320FFF745FFBDE8B8
:103C7C00104003460420184710B545F25320FFF7B7
:103C8C003BFFBDE81040034601201847FEF744BC3B
:103C9C001449154B70B55C1AA610442E324628BF39
:103CAC004422124D9200284605F01CFAB4F5867F8A
:103CBC0013D80F4AC6F1440012D02B19410803EB5C
:103CCC00C101C3E9002208338B42FAD1C30704D5E2
:103CDC0020F00100304445F82020064B9D6070BD5B
:103CEC004320F8E700000010100100100000002035
:103CFC001101001000ED00E0002370B52B4C82B0D8
:103D0C00C4F88430FFF738FF0122294BDA63636C67
:103D1C00012BFCD10321264A244B11639C6B012CF3
:103D2C00FCD10226052521460523224A224800966D
:103D3C00FFF700FE21462B46204A21480095FFF74D
:103D4C00F9FD0022042031461E4BFFF7F5FB2146FE
:103D5C00284600221C4BFFF7EFFB002208201146DF
:103D6C001A4BFFF7E9FB002209201146174BFFF70E
:103D7C00E3FB002206201146134BFFF7DDFB00226C
:103D8C00114B07201146FFF7D7FB0420FFF73CFC33
:103D9C0000240F4BA3FB0035AD0CE0B229460134D7
:103DAC00FFF784FE062CF8D102B070BD0000014074
:103DBC0000300140002F685900000540008C8647F8
:103DCC0000800540001BB70080D1F008006CDC02BD
:103DDC0083DE1B4386B003B451FC0804CDE9020119
:103DEC0051FC0904CDE9040151EC0A04CDE90601AA
:103DFC0003BCF047BDE800504EEC00C4BDE80050D9
:103E0C004EEC01C4BDE800504EEC02C400BD0000F5
:103E1C0000B5FFF7DFFF02E010FE30F4F8D441EC00
:103E2C00100443EC112400EE010410EE010480EEAA
:103E3C00200451EC1004704700B5FFF7CBFF02E0F3
:103E4C0010FE30F4F8D441EC100443EC112400EED5
:103E5C00010410EE210480EE200451EC3004704774
:103E6C0000B5FFF7B7FF02E010FE30F4F8D410B540
:103E7C0041EC100443EC112451EC040453EC0524E4
:103E8C00A0FB024C5FF0000EE0FB03CEE1FB02CE88
:103E9C004CEC20440024E1FB03E444EC30E480EEE1
:103EAC00200451EC5004BDE81040704700B5FFF7FA
:103EBC0091FF02E010FE30F4F8D441EC100443EC16
:103ECC00112451EC2104A0FB01126FEA820252FB77
:103EDC00100052FB12F252FB1000A0EBD07C53EC02
:103EEC0004245CFB13F153EC1524A1FB022001FB11
:103EFC00030053EC4424A2EB000050FB1CF24FEAED
:103F0C00111312EB017043EBE27140EA515020EABD
:103F1C00915020F0070053EC7524A0FB023C53ECAD
:103F2C00752400FB03CC01FB02CC53EC0424ACEB5A
:103F3C00824C40EA5C70A0F1010041EC400480EE40
:103F4C00200451EC7004704700B5FFF743FF02E00A
:103F5C0010FE30F4F8D440EC700400EE010410EEC6
:103F6C00210480EE200451EC3004704700B5FFF7BB
:103F7C0031FF02E010FE30F4F8D440EC600400EEA7
:103F8C00010410EE210480EE200451EC3004704743
:103F9C0000B5FFF71FFF02E010FE30F4F8D441EC3F
:103FAC00800400EE010410EE010480EE400410EEDB
:103FBC001304704700B5FFF70DFF02E010FE30F45C
:103FCC00F8D441EC800400EE010410EE010480EE04
:103FDC00400410EE3304704700B5FFF7FBFE02E01F
:103FEC0010FE30F4F8D441EC100443EC112400EE34
:103FFC00010410EE3004C0F30070704700B5FFF7F9
:10400C00E9FE02E010FE30F4F8D443EC102441EC4D
:10401C00110400EE010410EE30F48CBF01200020DE
:10402C00704700BF00B5FFF7D5FE02E010FE30F47C
:10403C00F8D443EC102441EC110400EE010410EE12
:10404C0030F42CBF01200020704700BF00B5FFF7F3
:10405C00C1FE02E010FE30F4F8D441EC100443EC45
:10406C00112400EE010410EE30F42CBF01200020CE
:10407C00704700BF00B5FFF7ADFE02E010FE30F454
:10408C00F8D441EC100443EC112400EE010410EEC2
:10409C0030F48CBF01200020704700BF9A4238BF1B
:1040AC0088547047704700BF2DE9F04F83B0994694
:1040BC00DDE90DAB0F9B884611469A07074616D1D2
:1040CC00DA453AD20C460D46ABEB0A060E442246B4
:1040DC004B46414620200134B847B442F7D129461B
:1040EC00BAF1000F08D1204603B0BDE8F08F0C46A2
:1040FC00BAF1000F10D00E4655460C9B2E449A4434
:10410C000191721B4B46013D41461AF8010D344694
:10411C00B847002DF5D101990F9B9B07E3D5651A84
:10412C00AB45E0D922464B46414620200135B847E5
:10413C005D4504F10104F5D3D5E70C46BAF1000F47
:10414C00D9D1D0E72DE9F04F0F9FDDF8248017F07F
:10415C00020F0A9C9DF82CA00E9DDDE90C9644D113
:10416C00F5BBB44241D207F0010B04F1FF3C4FF018
:10417C00300EC44404E00134A6420CF801EF01D91E
:10418C00202CF8D1BBF1000F00F08880A5422CD96F
:10419C0004F1FF3C4FF0300EC44404E00134AC4257
:1041AC000CF801EF21D0202CF8D117F0100F0ED005
:1041BC0017F4806F54D1A64263D0A54261D0B9F1F7
:1041CC00100F50D0B9F1020F56D0202C29D1202439
:1041DC00CDE90B57CDE90984BDE8F04FFFF764BF7B
:1041EC0017F0010B34D1B442BFD317F0100F1ED00F
:1041FC0017F4806FE3D1002CDDD1B9F1100F63D02F
:10420C00B9F1020F77D0302488F800400124BAF1BC
:10421C00000F11D17E0748D52B2608F80460013415
:10422C00D6E7264601344FF0300C08F806C0202C97
:10423C00CDD0BAF1000FEDD02D2608F80460013472
:10424C00CDE90B57CDE90984BDE8F04FFFF72CBF42
:10425C00BAF1000F30D0B44205F1FF3585D395E7A4
:10426C00B9F1100FB3D1BE063BD5202CAFD05826D8
:10427C0008F804600134A8E7202CA8D026460134A5
:10428C0007E0661EB9D0B9F1100F36D0B9F1020FA4
:10429C00C9D14FF0620C08F806C096E717F0100F62
:1042AC00C5D017F4806F86D089E73E0790D52026BD
:1042BC0008F8046001348BE717F00C0F00D0013DB7
:1042CC00B442FFF452AF61E7BC0612D4782488F8EC
:1042DC000040302488F801400224BAF1000F99D034
:1042EC00AAE7202C3FF473AF782608F80460013459
:1042FC006BE75824EBE76224E9E717F0200FA4F1F1
:10430C00020C04D04FF0580E08F80CE08BE74FF07D
:10431C00780E08F80CE086E700B9704701F0CCBBCA
:10432C0010B1D1E900311847704700BF0000000000
:10433C002DE9F04F97B09DED207BDDE9225B074620
:10434C00884651EC170B249C99460C920B4602465E
:10435C008DED047B0794FFF743FE002840F0F481B9
:10436C00DDE904014FF0FF326FF48013FFF74AFED2
:10437C00002840F01B81DDE904014FF0FF32AC4B0B
:10438C00FFF77CFE002840F0EE80DDE90401A4A3D9
:10439C00D3E90023FFF772FE002840F0D380DDE95B
:1043AC000401A1A3D3E90023FFF72CFE002840F061
:1043BC00C980DDE9040100220023FFF723FE002859
:1043CC0040F0E88023460D9013F4806F08BF06255B
:1043DC0030212B460EAAA5F1200605E0013BB34285
:1043EC0002F8011B00F09381092BF7D81E46ED1A39
:1043FC00DDE90401FFF7D0FD8E4B044603EBC60349
:10440C0093ED007B8DED087BFFF7A2FD02460B467A
:10441C00DDE90401FFF714FDDDE90823FFF724FDB6
:10442C0002460B46CDE90A23FFF7C8FD8246FFF78B
:10443C00A1FD02460B46DDE90A01FFF701FD02462C
:10444C000B46CDE90A2300227B4BFFF717FE002811
:10445C0000F0FE800AF1010A5046FFF78BFD024680
:10446C000B46DDE90801FFF7E1FD10B14FF0000A42
:10447C000134002E00F0FD80681E0EABDFF8CCC1BD
:10448C0018440FE0ACFB0A21C90801EB8102AAEB2E
:10449C0042023032BAF1090F00F8012F40F21C81B0
:1044AC008A461D46202D05F1010306F1FF36E9D1A0
:1044BC002025691E0EAB6148194410E080FB046294
:1044CC00C3EBA20303EB8302A4EB420404F130021E
:1044DC0001351C4601F8012F002B00F0EB80202D3C
:1044EC004FEAE473EAD1079B03F00303012B18D1C5
:1044FC00BBF1000F15D00D9B002B00F00A810BF1C6
:10450C00FF3BBBF1200F0CD96B1E0EA930220B44C4
:10451C0005E001355D4503F8012F80F0D180202D99
:10452C00F7D1079B0EACCDE902B341464B4638465A
:10453C000C9A01950094FFF7B7FD8246504617B0D0
:10454C00BDE8F08F079B9DED047BCDE923B341467D
:10455C004B4638460C9A8DED207B229517B0BDE862
:10456C00F04F00F045B9610723464CBF04230323E9
:10457C004146219338464B46079A48BF304CCDE90B
:10458C0022B258BF2F4C0C9A209417B0BDE8F04FB4
:10459C00FFF78ABDDDE9042300200021FFF750FC62
:1045AC000123CDE904010D9323460DE723469C0717
:1045BC0040F0AA80BBF1040F40F2A6800C9B1D4674
:1045CC001C1F04EB0B0A2A464B46414620200135A2
:1045DC00B847AA45F7D155461B4C261F14F8010DB8
:1045EC002A464B464146B847B44205F10105F5D180
:1045FC00079B0AF1040A9807A0D50C9CAAEB0403AC
:10460C009B459BD952464B46414620200AF1010A54
:10461C00B847AAEB04035B45F4D38FE7AFF30080F4
:10462C000000000065CDCD410000000065CDCDC17E
:10463C00FFFFEF7FA89700200000E03F67666666EB
:10464C00409500204895002054950020CDCCCCCC32
:10465C000022DDE90A01634BFFF7D4FC00287FF44C
:10466C0008AFBAF1000F6AD10AF1010A002E7FF4EB
:10467C0003AF2046FFF76CFC02460B46DDE9040154
:10468C00FFF7DEFB02460B46CDE904230022554B17
:10469C00FFF7B8FC00287FF40CAFDDE90401002221
:1046AC00504BFFF7EBFC00287FF403AF013424F0F0
:1046BC000104FEE6079B03F00303012B00F082804C
:1046CC00202D3FF42EAF0D9B7BB32D220DEB05035C
:1046DC0083F83820013524E7202B3FF4E9AE0EAAED
:1046EC0015441E44302204E0202B05F8012F3FF422
:1046FC00DFAE9E4203F10103F6D12E220DEB060331
:10470C0083F83820751CD4E6DDF830A063E720254B
:10471C006EE6079B13F00C0F50D00BF1FF3BAB4533
:10472C003FF6F2AE202D3FF4FCAE079B5A0701D5A5
:10473C002B22CBE71B077FF5F4AE2022C6E71AF03D
:10474C00010F3FF496AE8FE7A60734D1BBF1030FF0
:10475C0031D90C9B1D46DC1E04EB0B0A2A464B463A
:10476C00414620200135B8475545F7D155461E4CDA
:10477C00E61E14F8010D2A464B464146B847A642A0
:10478C0005F10105F5D1079B0AF1030A9D077FF599
:10479C00D5AE0C9CAAEB04039B457FF6CFAE5246DC
:1047AC004B46414620200AF1010AB847AAEB040304
:1047BC009B45F4D8C2E6DDF830A0D7E7AB453FF611
:1047CC00A3AEAEE6BBF1000F3FF47AAF0D9B002B0E
:1047DC009FD00BF1FF3B5D45FFF496AE202D7FF48F
:1047EC0074AF9EE60000E03F4F95002000000000F3
:1047FC002DE9F04F9FB02A9EDDE9284507469346E8
:10480C000891099322462B46204629460E96DDE94F
:10481C002BA6FFF7E5FB002840F0BE80204629467A
:10482C004FF0FF32784BFFF729FC002840F0B480A2
:10483C00204629464FF0FF326FF48013FFF7E2FB5E
:10484C00002840F0A9802046294600220023FFF7CB
:10485C00D9FB002840F0D581CDE90A45DDE90A23D2
:10486C009046994606F4006216F480630F921393F7
:10487C0040F0A18058EA090340F0CA80002A40F0B9
:10488C00E38106230E9316F00202109240F0D481BD
:10489C005346042B38BF04230C920422043B12927F
:1048AC000F932046294600220023FFF7ABFB00287C
:1048BC0040F0F3819DED0A7B0F9B5A4603930E9BB0
:1048CC008DED007B029326F4006304933846099B1C
:1048DC000899FFF72DFD024616F0200F099B089949
:1048EC000CBF6520452002F10108B8470C9A129BB9
:1048FC0016AC5D1E82EAE273A3EBE273D10F0026C5
:10490C0022469946DFF804C101E0202E10D0CE4695
:10491C00ACFB0930C00800EB8003A9EB4303303338
:10492C00BEF1090F814606F1010602F8013BECD8F5
:10493C000523002006930A2305950094099D089CE5
:10494C004246CDE90330CDE901612B46214638467C
:10495C00FFF7F8FB109A8046D2B1A0EB0B06B245DC
:10496C0016D90BEB06022B46214620200136B84700
:10497C00B245F6D80BF1FF335344CBF10102A3EB54
:10498C0008034244924538BF002308F101089844BB
:10499C0040461FB0BDE8F08F5A463846CDE9284551
:1049AC00CDE92BA60E9C099B08992A941FB0BDE853
:1049BC00F04FFFF7BDBC58EA09032BD1002A3FF496
:1049CC0062AF00230C930E9B0C9A934200F3B981B7
:1049DC004FF000082046294600220023FFF712FB67
:1049EC00002840F013819DED0A7B26F4006646F406
:1049FC0080668DED287B5A463846CDE92A8A099B7C
:104A0C0008992C96D2E700BFFFFFEF7FCDCCCCCC22
:104A1C0006230E93C9F30A50A0F2FF30FFF798FA61
:104A2C00C1A3D3E90023FFF71FFAC1A3D3E90023E5
:104A3C00FFF7F2F9C9F31309CDE90C0149F07F51E5
:104A4C0040460022B24B41F44011FFF7F9F9A4A300
:104A5C00D3E90023FFF708FA02460B46DDE90C0107
:104A6C00FFF7DAF9FFF798FA0C90FFF771FA9EA3AB
:104A7C00D3E9002380468946FFF7F6F90022A54BBF
:104A8C00FFF7CAF9FFF788FA0346494640461293E6
:104A9C0097A3D3E90023FFF7E7F9804612988946DC
:104AAC00FFF756FA94A3D3E90023FFF7DDF902468A
:104ABC000B4640464946FFF7C3F902460B46804673
:104ACC008946FFF7D1F942464B46CDE910014046E5
:104ADC004946FFF7A1F90022CDE91401DDE91001E7
:104AEC008D4BFFF7E7F900228C4BFFF795F9024647
:104AFC000B46DDE91001FFF7DDF90022884BFFF7CB
:104B0C008BF902460B46DDE91001FFF7D3F942465B
:104B1C004B468046894600204FF08041FFF790F9C4
:104B2C0002460B4640464946FFF776F902460B46CD
:104B3C00DDE91401FFF7BEF900227A4BFFF76CF99F
:104B4C00129B002203F2FF3C4FEA0C53FFF78CF947
:104B5C0080468946DDE90A0142464B46FFF752FA88
:104B6C0050B10C9B4046013B49460C9300226B4BC9
:104B7C00FFF7A0F9804689460C9A43466332C62A51
:104B8C0006F00202109249460F9A2CD8002A5ED0E9
:104B9C00042212920B433FF416AFDDE90A0158A32D
:104BAC00D3E90023FFF756FA48B1DDE90A0156A311
:104BBC00D3E90023FFF726FA00287FF404AF0E9BFD
:104BCC00002B50D0139A002A7DD0013B0E93129BE0
:104BDC009A4505D9109B002B00F0AE800223109350
:104BEC0000230F9344E022BBBAF1050F4FD906F016
:104BFC000203002B49D105231293AAF105030F934D
:104C0C003AE005F100430A940B9327E626F400667C
:104C1C0046F4806638462C96DDE90A67344607F17F
:104C2C0000455A46CDE92A8ACDE92845099B0899C1
:104C3C00BCE605221292ADE700230222CDE90F3229
:104C4C0004220C9312922CE64FF00508C2E6BAF13E
:104C5C00040F1FD9109B002B78D104231293AAF1B7
:104C6C0004030F9304E0129B9A4531D80E9B0F93CB
:104C7C000C9B002B3FF415AEDDE90A0142464B4676
:104C8C00FFF718F9CDE90A010BE60223109305236F
:104C9C001293F1E704231293EAE7DDE90A45A046F3
:104CAC000F9B05F1004903930E9B5A46029326F481
:104CBC00006304933846CDE90089099B0899FFF7F6
:104CCC0037FB024608E6129B9A4544D80F92CFE771
:104CDC00109B8BB30E9B0F9302231093C8E700BF5E
:104CEC0061436F63A787D23F71A379094F930A4041
:104CFC001655B5BBB16B0240EF39FAFE422EE63FBA
:104D0C002D431CEBE2361A3F0000000080842E413C
:104D1C000000F83F0000E03F00002C400000244061
:104D2C00000018400000F03FFB799F501344D33F24
:104D3C00B3C8608B288AC63F129BAAEB03030F9360
:104D4C0096E7A3EB020808F1FF3843E6042312931D
:104D5C00022310938CE7109B002BEDD002230F92B3
:104D6C00109385E72DE9F04F9BB0249C954D0A9448
:104D7C00954CB1F1000A18BF834625601878934C06
:104D8C00914608BFA3460993002800F093824FF088
:104D9C0000080AE042464B46514608F10108D84744
:104DAC00099B1878002800F0CE80099B252803F178
:104DBC0001030993EED11C460023224612F8010B85
:104DCC00A0F1200110290AD8DFE801F04009093CC4
:104DDC000909090909090938093409093000A0F140
:104DEC0030010929099440F28A802A2800F0F080C9
:104DFC0000252E2800F096800026A0F168011229CB
:104E0C002DD8DFE811F049012C0043012C003801AA
:104E1C002C002C002C002C002C002C002C0027002B
:104E2C002C002C002C002C002C002700144643F0E6
:104E3C000103C2E7144643F00203BEE7144643F0F5
:104E4C000403BAE7144643F01003B6E7144643F0E4
:104E5C000803B2E70999487843F480730132672854
:104E6C0009927ED8242840F2C180A0F12502422A62
:104E7C0000F2BC80DFE812F05001BA00BA00BA00B0
:104E8C00BA00BA00BA00BA00BA00BA00BA00BA0046
:104E9C00BA00BA00BA00BA00BA00BA00BA00BA0036
:104EAC00BA00BA00BA00BA00BA00BA00BA00BA0026
:104EBC00BA00BA00BA00BA00190137011901BA00D8
:104ECC00BA00BA00BA00BA00BA00BA00BA00BA0006
:104EDC00BA00BA00BA00BA00BA00BA00BA00BC01F3
:104EEC00BA00BA00BA00BA00BA00BA00BA00BA00E6
:104EFC00BA00BC015801BC01190137011901002588
:104F0C0000E0013205EB850500EB45051078303DDE
:104F1C00A0F130010929F4D92E28099202F10102DD
:104F2C007FF46AAF099943F4806348781146A0F185
:104F3C003006092E40F221812A2800F02F81099297
:104F4C000026013259E74446C14501D809F1FF3822
:104F5C004B46424651460020D84720461BB0BDE880
:104F6C00F08FA0F16902D2B20F2A3FD8012149F289
:104F7C0041079140394040F0F3800A2A3DD0072A7E
:104F8C0034D10A9D55F8042B002A00F0138143F00C
:104F9C00210012AB1F460B9303E0202900F0148173
:104FAC001A4602F00F042346092C94BF30333733D2
:104FBC000F2A07F8013B01F101014FEA1213ECD85B
:104FCC0002E100BF654C0020BCA80620A53F0020D4
:104FDC000A99099851F8045B4078002DCDE9092114
:104FEC00BCBF43F002036D42013202E742464B461E
:104FFC00514608F10108D847D2E60A99002E51F81B
:10500C00047B18BF3246387808BF4FF0FF320028B7
:10501C0000F07B83BC18A4463A4604E012F8014F1A
:10502C00002C00F03F819445F8D16446E41B5A05EE
:10503C0040F12281B44228BF344613F0020300F041
:10504C0088820223CDE90A5142461D46464408E0B7
:10505C004B465146D84717F8010F08F1010810B11B
:10506C0042464645F4D12B460B990A9D002B40F045
:10507C0041810A9194E6099948786C287FF4ECAE4A
:10508C000A46887843F440730332E8E6099943F4FE
:10509C00007348780132E2E609994878682800F0F4
:1050AC00038143F080030132D9E6672800F0D980F0
:1050BC00472800F0DC80452800F0DB80CDE9035365
:1050CC000A9B0296073323F007031C464246F4E87A
:1050DC0002674B4651465846CDE900670A94FFF7E4
:1050EC0087FB80465CE6462808BF43F02003CDE9E9
:1050FC0003530A9B0296073323F007031C464246D0
:10510C00F4E802674B4651465846CDE900670A94CD
:10511C00FFF70EF9804643E642464B4651462520A2
:10512C0008F10108D8473BE60A9A990702F10404F2
:10513C0008F1010640F1C68010784B4642465146B4
:10514C00D847012D88BFA84440F2BD8132464B465A
:10515C00514620200136D8474645F7D10A941FE620
:10516C006F2800F0818040F24882782800F090810E
:10517C000A2723F01003BC4641E0002606EB860606
:10518C0000EB4600A0F1300611F8010FA0F130023F
:10519C00092AF3D90A46099101322EE6DDE90921E3
:1051AC0051F8046B9078023209920A91013226EA86
:1051BC00E67622E623F0100013F4806240F0210022
:1051CC003FF4E7AE12AB0B930B9B069000930823B6
:1051DC001020059300234246CDE9023001914B4645
:1051EC00514658460496FEF7ADFF0A958046D7E522
:1051FC00582862D0622840F08F800227BC4613F4F6
:10520C00806000F0DD8023F00D0313F4007240F099
:10521C0081810A990F1D13F4807140F037825C066E
:10522C000A9A40F13B811278002A40F04E8123F01B
:10523C001003002800F04981114612AA0B92CDE907
:10524C000553CDE903C601910B9B42460093002305
:10525C005146029358464B46FEF774FF0A97804618
:10526C009EE543F4006329E70827BC46C7E743F4EF
:10527C00006343F0200321E713F0020300F08E815A
:10528C0002230A951E460D4642464B465146D847C8
:10529C0017F8010F08F101080028F5D1294633460B
:1052AC000A9DE3E6D41BC2E60A46887843F0C003A5
:1052BC000332D4E50446804646E6102743F020032B
:1052CC00BC469CE7012D40F2F880464608F1FF37BA
:1052DC002F4432464B46514620200136D847BE4219
:1052EC00F7D10A9B3246187851464B46D847A8440A
:1052FC000A9455E54646A5427FF6BBAEA844A8EBFA
:10530C0004080C4632464B46514620200136D847FD
:10531C004645F7D12146ACE613F4806200F0BB8021
:10532C004FF4806223F0110C1CF400770A9B4AD1D5
:10533C001CF4807003F1040440F034811CF0400F25
:10534C0040F0A3801CF0800F00F0D381B3F9001063
:10535C0081EAE177A7EBE177BFB2CB0F002900F030
:10536C0056813A4612A90F46DFF8D8E30B910A93FF
:10537C000C9501E020280FD01546AEFB0213DB087C
:10538C0003EB8301A2EB41013031092D1A4600F1E8
:10539C00010007F8011BEDD80A9B0C9DCDE9055CBB
:1053AC00CDE9010304960B9B424600930A23514618
:1053BC00039358464B46FEF7C5FE0A948046EFE42D
:1053CC0023F00C0321E7073323F0070319460846A3
:1053DC005B6850F8081BDF0F0A9051EA030062D19A
:1053EC00002A40F09F811346114612AACDE90C7594
:1053FC0000201546CDE90E68DFF848E30B9201E07A
:10540C0020282DD05A1842F10002AEFB027828F069
:10541C00030707EB9807D21B1E469B1A61F1000786
:10542C000C464FF0CC3101FB03F10EFB0711A3FB33
:10543C000E731944052307F00108A8FB03389B18C9
:10544C000A2E03F130034FEA570774F1000405F8F4
:10545C00013B00F1010047EAC1734FEA5101CFD281
:10546C00DDE90C75DDE90E680B9B424600930A23BF
:10547C00CDE9055CCDE90107049603934B465146F3
:10548C005846FEF75FFE80468AE419780F4664E7BB
:10549C001027BC46B3E623F0100C45E71C064CBFA6
:1054AC0012881268C0E60A46191E01DB13469CE7F7
:1054BC005242134661EB410197E713465146187867
:1054CC0042464B46D847B04648E613F0200F14BF6F
:1054DC004120612012ACA6460B940A93A0F10A0459
:1054EC000C9502E0202912D02A46B2FBFCF50CFBED
:1054FC001520C3B2092803F130008ABF1B19C3B2AF
:10550C00DBB262450EF8013B01F10101EAD20A9BC4
:10551C000C9D94E60A9A073222F00702516852F861
:10552C00084B8E460A9254EA010276D123F01003FE
:10553C00002872D00022114612AA0B92CDE9055315
:10554C000B9B424600930023CDE903C601910293C5
:10555C0094E7A54298BF01347FF674AD4FF4806395
:10556C00CDE90A7505EB08021F460D46141B424691
:10557C004B465146202008F10108D847A045F6D1EA
:10558C003B460A9F294638780B9D6C1C00283FF43B
:10559C0070AD002B3FF475AE002353E5A542DFD868
:1055AC0001346EE61968CB0F002900F0A88081EA5F
:1055BC00E172A2EBE17212A90846DFF888E10B91C7
:1055CC000A930C9501E0202F0FD01546AEFB021369
:1055DC00DB0803EB8301A2EB41013031092D1A46A4
:1055EC0007F1010700F8011BEDD80A9B0C9DCDE9D2
:1055FC00055CCDE901730496D5E6692823F0100CFF
:10560C0040F08C8013F480623FF48EAE88E6002A62
:10561C003FF4A8AE12AA0B92C0E613F0200F14BFF1
:10562C0041226122002012A90A3ACDE90E68CDE987
:10563C000C35CDF844B006468846754693460B911A
:10564C00CDF840C003E0202E17D004460D46294665
:10565C003A460023204603F0EBFAD2B2092A02F1B3
:10566C00300388BF02EB0B03BC42DBB275F10005C3
:10567C0008F8013B06F10106E5D23146DDE90C35AF
:10568C00DDE910CBDDF83C800E9E57E70A990968DE
:10569C0051B923F0100338B112A90B91CDE9055380
:1056AC00CDE903C60192CFE513F0200F14BF4120C2
:1056BC00612012ACA6460B940A93A0F10A040C9537
:1056CC0002E0202A12D02946B1FBFCF50CFB151088
:1056DC00C3B2092803F130008ABF1B19C3B2DBB275
:1056EC0061450EF8013B02F10102EAD20A9B0C9DC6
:1056FC00D4E7196881EAE177A7EBE1772DE6002A78
:10570C003FF459AF12AA0B9271E713F480640DD0D9
:10571C0013F0020412D004464646ECE50A27634611
:10572C00BC466CE512AB00200B939DE613F0020314
:10573C007FF4E0AD002D7FF413AF9AE4002D7FF4DD
:10574C000DAF96E4CDCCCCCC0EB410B585B007AC77
:10575C0054F8043B01464FF0FF3200940448039484
:10576C00FFF700FB05B0BDE8104003B0704700BF69
:10577C009D3F002070B594461E4605460C4684B0ED
:10578C004FF0FF32634602A900960348CDE902545C
:10579C00FFF7E8FA04B070BD2142002010B5094BA8
:1057AC0084B01C684CB1034600914FF0FF3203A942
:1057BC000548A047012004B010BD00F0BFF92046F9
:1057CC0004B010BDBCA806201942002000BEFDE7A5
:1057DC0008B5FFF7FBFF00BF38B5064C064DFEF7CA
:1057EC00EBF9AC4204D254F8043B9847AC42FAD3E0
:1057FC0038BD00BFB49A0020C49A00200368084644
:10580C00114618472DE9F0411546427D074688465A
:10581C00002A46D0002D1DDD0B780A2B23D0012D3C
:10582C004FF0000C18D04646012416F8012F2146E3
:10583C000A2A04F1010422D0A542F6D165450BDCFD
:10584C0008EB050313F8013CA3F10D03B3FA83F342
:10585C005B093B75BDE8F0813B68A5EB0C0108EBDF
:10586C000C009847ECE7037D002BD8D1036802218C
:10587C000F489847012DE3D04FF0010CD3E716F8F1
:10588C00013C0D2BD8D08C4508EB0C00A1EB0C0186
:10589C0001DA3B689847022105483B689847A446C3
:1058AC00CAE7294640463B68BDE8F041184700BFAF
:1058BC00F89700200B682DE9F041802B0D46064629
:1058CC0005D05A1C2B442A601E71BDE8F0810F4B89
:1058DC001C68A4B10E4F01F1040801E0246974B1F5
:1058EC002368002BFAD03B680BB1A342F6D12046BB
:1058FC0041462A68FFF786FF2469002CF0D100236B
:10590C0001222B442A601E71BDE8F081A0A4062060
:10591C00A4A406202DE9F04782B00D4691461C4602
:10592C000646FDF77BFD4FF0FF3C6FF000472E4A1B
:10593C00821841F10003944577EB03013CBF6246AA
:10594C003B462A4803F030FD6B1C804640D00CB31C
:10595C00274F284B1C68B4B1B9F1000F1CD1DFF8EC
:10596C009C9001E0246974B12368002BFAD0D9F81B
:10597C0000300BB19C42F5D120462A463146B8473F
:10598C002469002CF0D1B8F1000F26D1284602B0C2
:10599C00BDE8F087184FDCE74FF00A0ADFF85C909F
:1059AC0002E02469002CEED02368002BF9D0D9F842
:1059BC0000300BB1A342F4D12A4631462046B847F9
:1059CC00012220460DF107018DF807A0B847E8E742
:1059DC00304603F0EDFA0546B9E7044803F034FD10
:1059EC00284602B0BDE8F08740420F006C9A0020B8
:1059FC0005570020A0A40620FD560020A4A40620D4
:105A0C00084A136823B90AE003F110021B6933B189
:105A1C008342F9D129B9186910601961704701B135
:105A2C0010607047A0A4062000F010BB2DE9F041D7
:105A3C0082B00646FDF7F2FC4FF0FF326FF00043E8
:105A4C00361841F10007B24273EB07013CBF164612
:105A5C001F46DFF86080154DD8F8004014B912E0ED
:105A6C00246984B12B680BB19C42F9D1A368002B3B
:105A7C00F6D0012101A898470028F1DD9DF804001B
:105A8C0002B0BDE8F0810A4B5A6A974209D89B6A6A
:105A9C00B34204D36FF0010002B0BDE8F08197422D
:105AAC00F8D101200021FDF7C3FCD5E7A4A4062002
:105ABC0000000B40A0A40620F0B583B006468DF87C
:105ACC000700FDF7ABFC4FF0FF356FF00044174AB1
